:1000000033C000004CC000004AC0000048C00000DF
:1000100046C0000044C0000042C0000040C00000D4
:100020003EC000003CC000003AC00000E7C0000035
:1000300036C0000034C0000032C0000030C00000F4
:100040002EC000002CC000002AC0000028C0000004
:1000500026C0000024C0000022C0000020C0000014
:100060001EC000001CC0000011241FBECFEFD8E04E
:10007000DEBFCDBF11E0A0E0B1E0EEE9F2E002C0EA
:1000800005900D92A032B107D9F711E0A0E2B1E0DE
:1000900001C01D92A332B107E1F7D3D0FEC0B0CFAB
:1000A000E0E8F0E0808180648083E1E8F0E0808136
:1000B00088608083808181608083EFE6F0E08081CA
:1000C00082608083789408951092C5008CE08093BC
:1000D000C40088E18093C10086E08093C200E0EC18
:1000E000F0E080818260808308959091C00095FF48
:1000F000FCCF8093C60008958091C00087FFFCCF9D
:100100008091C60008951F93CF93DF93EC0110E018
:10011000FE01E10FF11D8081882319F0E6DF1F5FEA
:10012000F7CFDF91CF911F9108950F931F93CF9336
:10013000DF93D0E3C0E300E3DFDF182FD6DF1D300D
:1001400021F00C2FCD2FD12FF7CFD053005384E6C1
:10015000089FD00D11249C2F990F9056892F880F3E
:10016000880F890F8D0FDF91CF911F910F91089507
:10017000CF93C82F64E685D0805DB7DF2AE08C2F4F
:10018000622F7FD0C92F7DD080E3890FAEDF80E35F
:100190008C0FCF91AACF84B1876084B9089521983C
:1001A00008958091200180FD0CC08091000187FF9F
:1001B00002C0289A01C0289880910001880F80937E
:1001C00000018091200190912101409709F42A9A21
:1001D0008091200190912101419731F42A98DFDF2D
:1001E0008091000180932201809120019091210152
:1001F0000196909321018093200108951F920F9200
:100200000FB60F9211242F933F934F935F936F93E9
:100210007F938F939F93AF93BF93EF93FF93C1DF30
:10022000FF91EF91BF91AF919F918F917F916F91CE
:100230005F914F913F912F910F900FBE0F901F90A4
:1002400018952EDF41DF81E091E05DDFC8ECD0E062
:100250009091220180910001981749F09CDFD09382
:100260008900C09388001092210110922001809192
:1002700000017EDF8DE191E046DF57DF80930001D2
:10028000E7CF991B79E004C0991F961708F0961BD9
:0E029000881F7A95C9F780950895F894FFCFDE
:10029E00FF4469676974653A20756D2076616C6FED
:1002AE007220656E7472652030206520000A000091
:00000001FF
