:1000000033C0000044C0000042C0000040C00000F7
:100010003EC000003CC000003AC0000038C00000F4
:1000200036C0000034C0000032C0000030C0000004
:100030002EC000002CC000002AC0000028C0000014
:1000400026C0000024C0000022C0000020C0000024
:100050001EC000001CC000001AC0000018C0000034
:1000600016C0000014C0000011241FBECFEFD8E05E
:10007000DEBFCDBF11E0A0E0B1E0ECEDF1E002C0E9
:1000800005900D92A432B107D9F77DD0A5C0B8CFA5
:10009000219A2998229A2A9A239A2B9A259A8CB5E2
:1000A00082608CBD8CB580618CBD8CB580648CBD4C
:1000B0008CB588608CBD8CB584608CBD0895109221
:1000C000C5008CE08093C40088E18093C10086E085
:1000D0008093C200E0ECF0E080818260808308952C
:1000E000AC0120E007C08091C00085FFFCCFE09309
:1000F000C6002F5FFA01E20FF11DE081EE2399F7B0
:10010000089540E330E320E38091C00087FFFCCFF7
:100110009091C6008091C00085FFFCCF9093C600EF
:100120009D3021F0432F322F292FEECF205D84E622
:100130004802C0011124280F8AE03802C0011124AE
:10014000820F0895282F8091C00085FFFCCF822F59
:1001500064E636D0805D8093C6008091C00085FF44
:10016000FCCF822F6AE02CD02BD0905D9093C600FC
:100170008091C00085FFFCCF822F6AE021D0905D86
:100180009093C60008950F931F9399DF81DF80E05D
:1001900091E0A6DF1FEF05E11EBD0DB407FEFDCF08
:1001A000299A802F8A95F1F72998ABDF182F81E2E1
:1001B00091E096DF812FC6DF81E291E091DFECCF05
:1001C000991B79E004C0991F961708F0961B881FA9
:0C01D0007A95C9F780950895F894FFCF48
:1001DC0044696769746520756D2076616C6F722057
:1001EC00656E74726520302065203235353A0D0A03
:0401FC00000D0A00E8
:00000001FF
